:100000000C9464040C94A8040C94A8040C94A80404
:100010000C94A8040C94A8040C94A8040C94A804B0
:100020000C94A8040C94A8040C94850E0C94570FFF
:100030000C94A8040C94A8040C94A8040C94A80490
:100040000C94A8040C9421240C94A8040C94A804E7
:100050000C94A8040C94B01D0C94A8040C94A8044F
:100060000C94A8040C94A8040C94A8040C94A80460
:100070000C94A8040C94A8040C94A8040C94A80450
:100080000C94A8040C94A8040C94A8040C94A80440
:100090000C94A8040C94A8040C94A8040C94A80430
:1000A0000C94A8040C94A8040C94A804E904E20499
:1000B000D704DA04DD04E004E504C40FE60FD4102D
:1000C000E60FD4102B104E10D410A310B610A213AC
:1000D000A213DF13DF132214601479167916791432
:1000E00079167A157A154D16791679166416000068
:1000F000F0A135002B002A00E100E00000001E0006
:1001000034000400330001004D001F0036001200CF
:100110001400010029002000370008000D00E20053
:100120002C002100130018000E00E3004A002200FA
:100130001C000C001B00000004524C0001000000D9
:10014000007F000001524C00010000000077000019
:100150000354230009000700050000000554240093
:100160000A000B00100050004B002500060017008D
:100170001A00510028002600150011001900520035
:10018000025227000F0016001D004F004E002E00E7
:1001900038002D00E50001540000010001000100BD
:1001A0000100010000003A001E02200222020100AC
:1001B00001003B001F0221022302010001003C005C
:1001C0002F022F002602010001003D003002300006
:1001D0002702010001003E00310235003502000017
:1001E0000100010001000000010000000100010009
:1001F000010000000100000001003F00520051001A
:100200002402000001004000240021001E00010023
:1002100001004100250022001F00370001004200BC
:1002200026002300200027000100430025022E02A3
:1002300038002E000100440045003100010001009B
:1002400000000100010001000100010000000100A8
:100250000100010001000100FA0001000100F200AC
:1002600001000100F5000100F000F10001000100B3
:10027000F40001000100F30001000100F900010099
:100280000100010001000000F60001000100000073
:100290000100000001000100010000000100000059
:1002A0000100010001000100010000000100010047
:1002B00001005001AC00AA000100010052015101EF
:1002C000AB00A9000100010001004F01AE00A80031
:1002D0000100010001000100010001000100010016
:1002E0000100010001000100000035002B002A0080
:1002F000E100E00000001E00140004001D00510099
:1003000001001F001A0016001B005200010020000F
:10031000080007000600E2000100210015000900A6
:100320001900E3000100220017000A000500000088
:1003300001004C0001000000007F000001004C00A3
:100340000100000000770000010023001C000B00EA
:10035000110000000100240018000D0010005000E2
:10036000010025000C000E0036004F0001002600A1
:1003700012000F0037002F00010027001300330088
:100380003800300001002E0038003400E500010084
:1003900000001D0A010001000100010000001D080D
:1003A0002800AE000100010001001B08AC00500154
:1003B0000100010001000608520151010100010085
:1003C00001001908AB004F01010001000100A90064
:1003D000AA00A800010000000100010001000000C7
:1003E0000100000001000100010000000100000008
:1003F00001000100010001000100000001000100F6
:1004000001000100010001000100010001000100E4
:1004100001000100010001000100010001000100D4
:1004200001000100010001000100010001000100C4
:1004300001000100010001000000010001000100B5
:1004400001000100000001000100010001000100A5
:100450000100010001000100010001000100010094
:100460000100010001000100010001000100010084
:100470000100010001000100010001000100000075
:100480000100010001000000010000000100010066
:100490000100000001000000010001000100010056
:1004A0000100000001000100010001000100010045
:1004B0000100010001000100010001000100010034
:1004C0000100010001000100010001000100010024
:1004D0000100010001000100010001000100010014
:1004E0000000010001000100010001000000010006
:1004F00001000100010001000100010001000100F4
:1005000001000100010001000100010001000100E3
:1005100001000100010001000100010001000100D3
:1005200001000100010000000100010001000000C5
:1005300001000000010001000100000001000000B6
:1005400001000100010001000100000001000100A4
:100550000100010001000100010001000100010093
:100560000100010001000100010001000100010083
:100570000100010001000100010001000100010073
:100580000100010001000100000001000100010064
:100590000100010000000100010001000100010054
:1005A0000100010001000100010001000100010043
:1005B0000100010001000100010001000100010033
:1005C0000100010001000100010001000100000024
:1005D0000100010001000000010000000100010015
:1005E0000100000001000000010001000100010005
:1005F00001000000010001000100010001000100F4
:1006000001000100010001000100010001000100E2
:1006100001000100010001000100010001000100D2
:1006200001000100010001000100010001000100C2
:1006300000000100010001000100010000000100B4
:1006400001000100010001000100010001000100A2
:100650000100010001000100010001000100010092
:100660000100010001000100010001000100010082
:100670000100010001000000010001000100000074
:100680000100000001000100010000000100000065
:100690000100010001000100010000000100010053
:1006A0000100010001000100010001000100010042
:1006B0000100010001000100010001000100010032
:1006C0000100010001000100010001000100010022
:1006D0000100010001000100000016034500720046
:1006E00067006F0044006F007800200045005A004A
:1006F000000016034500720067006F0044006F00A1
:100700007800200045005A00000004030904090293
:100710006D00040100A0FA090400000103010100BA
:10072000092111010001223F000705810308000A89
:100730000904010001030102000921110100012245
:100740004D000705820308000A09040200010300A6
:10075000000009211101000122360007058303086A
:10076000000A09040300010300000009211101002F
:100770000122390007058403100001120110010055
:10078000000008EDFE071301000102000105010948
:1007900006A101050719E029E7150025019508754F
:1007A0000181020508190129059505750191029538
:1007B0000175039101050719002977150025019599
:1007C0007875018102C005010980A1018502160129
:1007D0000026B7001A01002AB700751095018100A4
:1007E000C0050C0901A1018503160100269C021A0F
:1007F00001002A9C02751095018100C005010902C3
:10080000A1010901A100050919012905150025010A
:100810009505750181029501750381010501093076
:1008200009311581257F95027508810609381581E2
:10083000257F950175088106050C0A38021581256A
:100840007F950175088106C0C005010906A1010553
:100850000719E029E7150025019508750181029522
:100860000175088101050819012905950575019192
:10087000029501750391010507190029FF1500254F
:10088000FF950675088100C0000000000000000010
:10089000000000010204060A0F17202C3A4A5D717D
:1008A000879DB3C7DAE9F5FCFFFCF5E9DAC7B39D2C
:1008B00087715D4A3A2C20170F0A060402010000D6
:1008C000000000000000000011241FBECFEFDAE09E
:1008D000DEBFCDBF04B603FE24C08091EE0190912F
:1008E000EF01A091F001B091F1018730904BA7404A
:1008F000B04BB9F41092EE011092EF011092F0019A
:100900001092F10114BE84B7877F84BF88E10FB6CF
:10091000F89480936000109260000FBEE0E0FFE367
:10092000099511E0A0E0B1E0E6ECFBE402C005901F
:100930000D92A433B107D9F711E0A4E3B1E001C0EF
:100940001D92AE3EB107E1F70E94C90B0C94E12560
:100950000C94000061110BC0FC018281882321F0FE
:1009600085EE0E94361203C085EE0E94FE1280E0E2
:1009700090E0089508956091B1017091B201809165
:10098000B3019091B4010E94DC1C56985E982598A2
:100990002D9826982E9827982F9890E0FC01319753
:1009A000E730F105C0F4EA5AFF4F0C949625279AD8
:1009B0002F9A08C0259A2D9A0895259A2D9A09C034
:1009C000259A2D9A269A2E9A0895259A2D9A269A36
:1009D0002E9A279A2F9A08950C94BB0456985E98E5
:1009E00025982D9826982E9827982F988FEF90E08D
:1009F000909389008093880090938B0080938A0065
:100A000090938D0080938C00259A2D9A2FEF80E78C
:100A100092E0215080409040E1F700C00000269A0B
:100A20002E9A2FEF80E792E0215080409040E1F72E
:100A300000C00000279A2F9A2FEF80E792E0215004
:100A400080409040E1F700C0000025982D982FEFDE
:100A500080E792E0215080409040E1F700C0000024
:100A600026982E982FEF80E792E02150804090400A
:100A7000E1F700C0000027982F9856985E982598B7
:100A80002D9826982E9827982F98089589EA809374
:100A9000800089E08093810024982C983F988AB147
:100AA0008F748AB96E98479A8BB1806B8BB9769A9E
:100AB0000E94EE040C94BA0480E2809300018091BD
:100AC000340181110EC00E94AB0581E08093340196
:100AD0002FEF83ED90E3215080409040E1F700C07C
:100AE000000080E40E94B1058093000181112EC0B6
:100AF0000E94DB0580930001811128C00E94DB0564
:100B000080930001811122C08FE30E94DB05809356
:100B1000000181111BC00E94D30580E40E94B10531
:100B200080930001811112C08CE00E94DB0580934C
:100B3000000181110BC00E94DB058093000181112F
:100B400005C08FE30E94DB05809300010E94D3055E
:100B50008091000108951092B9008AE08093B80056
:100B6000089594EA9093BC009091BC0097FFFCCF4D
:100B70009091B900987F983021F0903111F081E088
:100B800008958093BB0084E88093BC008091BC00F2
:100B900087FFFCCF8091B900887F883111F08034C5
:100BA00071F780E0089584E98093BC008091BC00D7
:100BB00084FDFCCF08958093BB0084E88093BC0043
:100BC0008091BC0087FFFCCF9091B900987F81E0B5
:100BD000983209F480E0089584E88093BC00809105
:100BE000BC0087FFFCCF8091BB000895809100017D
:100BF000811115C080E40E94B1058093000181112C
:100C00000CC082E10E94DB0580930001811105C0C8
:100C10008FEF0E94DB05809300010E94D30584B111
:100C2000807F84B985B1807F85B98AB1837F8AB995
:100C30008BB1837F8BB93E98469808950E945C05DE
:100C4000809300010E94F60580B38C7080BB81B355
:100C5000836F81BBA6E3B1E0E4E4F1E08EE08E0FA8
:100C600011921D928E13FCCF0C944605BF92CF9229
:100C7000DF92EF92FF920F931F93CF93DF938091B8
:100C80000001882379F0809135018F5F80933501D1
:100C9000811108C00E945C0580930001811102C08F
:100CA0000E94EE0406E311E0C0E0D0E0DD24D3941E
:100CB00082E0C82EEE24E394F12CC730D10500F574
:100CC00080910001811164C080E40E94B10580938D
:100CD0000001811112C082E10E94DB0580930001B6
:100CE00081110BC0C7010C2E01C0880F0A94EAF7CE
:100CF00080950E94DB05809300010E94D30548C0C7
:100D0000CA30A1F028F4C83059F0C93061F005C0EC
:100D1000CC3089F070F0CD3089F0209A289810C03E
:100D2000219A29980DC0229A2A980AC0239A2B98B2
:100D300007C0529A01C0539A5B9802C03E9A4698E7
:100D400090EA9A95F1F79FB1799902C082E001C0CB
:100D500080E091709D25982B7C9902C084E001C0B1
:100D600080E0892B7D9902C038E001C030E0832B00
:100D70007E9902C020E101C020E0822B9FB19095B6
:100D8000991F9927991F9295990F907E892B0FC0D3
:100D900080910001811149C080E40E94B1058093D7
:100DA0000001882379F1B12C0E94D3058B2DF80125
:100DB0009081981719F08083C09201010E94F60576
:100DC00021960F5F1F4FCE30D10509F076CF80916D
:100DD0000101882361F1815080930101882339F05A
:100DE0008FE99FE00197F1F700C0000020C0A4E464
:100DF000B1E0E6E3F1E0CF01825F91919D938E1324
:100E0000FCCF15C083E10E94DB05809300018111B6
:100E1000CACF81E40E94B105809300018111C3CF44
:100E20000E94EC05B82EB094BFCF80E0C0CF0E94E6
:100E3000EC0481E0DF91CF911F910F91FF90EF9033
:100E4000DF90CF90BF900895E82FF0E0EC5BFE4F6D
:100E5000808108950895089596E0799FF001112406
:100E600094E5899FE00DF11D1124E60FF11DEE0FB1
:100E7000FF1FEE50FF4F859194910895880F991FA1
:100E8000FC01E259F040859194910895880F991FD3
:100E9000FC01E251FF4F8591949108950F931F93A8
:100EA000CF93DF93EC018115904350F5C11580E29B
:100EB000D80708F0B3C0CB3BD10590F4C83AD105B0
:100EC00008F05AC0C53AD10508F04BC0C430D1056E
:100ED00008F0BBC1219709F0B5C101E010E0F5C1F0
:100EE000CF3FD10511F008F0B0C1C03FD10508F0E7
:100EF00092C0CE01805E9109089708F4A6C1A2C1F4
:100F0000C11591E5D907A8F4C23020E5D20708F051
:100F10009EC0C11580E5D80709F485C008F091C0CE
:100F2000C11520E4D20708F08DC1DD278E01106CB9
:100F3000CCC1C11580E8D80758F4C11590E7D9078E
:100F400008F07CC1C11520E6D20708F422C17AC19D
:100F5000C11580E9D80708F075C1DF708E01106AED
:100F6000B4C1C53AD10509F472C1C63AD10509F038
:100F700071C102E810E4A9C1C83AD10509F46DC1F4
:100F8000C93AD10509F46CC1CA3AD10509F46BC15B
:100F9000CB3AD10509F46AC1CC3AD10509F469C14B
:100FA000CD3AD10509F468C1C03BD10509F467C148
:100FB000CE3AD10509F466C1CF3AD10509F465C12D
:100FC000C13BD10509F464C1C23BD10509F463C139
:100FD000C33BD10509F462C1C43BD10509F461C129
:100FE000C53BD10509F460C1C63BD10509F45FC119
:100FF000C73BD10509F45EC1C83BD10509F45DC109
:10100000C93BD10509F45CC1CA3BD10509F45BC1F8
:1010100000E014E45AC18E01106557C1CE019F70E3
:101020000E94460753C10E949D169FEF24E38CE067
:10103000915020408040E1F700C000000E94D51D83
:1010400044C18091CD0181608093CD013EC10E9459
:101050007E1F811102C00E94641F0E949B1F90E0AE
:101060009093EE018093ED01C23090E5D90721F411
:101070008091ED01816086C0C43020E5D20721F463
:101080008091ED0182607EC0C63080E5D80721F4F2
:101090008091ED01846076C0C83090E5D90719F4DD
:1010A0008091ED0127C0CA3020E5D20721F480915C
:1010B000ED01806167C0CC3080E5D80721F48091D4
:1010C000ED0180625FC0CE3090E5D90721F48091B8
:1010D000ED01806457C0C03120E5D20721F4809132
:1010E000ED0180684FC0C23180E5D80729F48091B6
:1010F000ED018460886046C0C33090E5D90721F4D3
:101100008091ED018E7F3EC0C53020E5D20721F4ED
:101110008091ED018D7F36C0C73080E5D80721F47E
:101120008091ED018B7F2EC0C93090E5D90719F46D
:101130008091ED0126C0CB3020E5D20721F48091CB
:10114000ED018F7E1FC0CD3080E5D80721F480915E
:10115000ED018F7D17C0CF3090E5D90721F4809144
:10116000ED018F7B0FC0C13120E5D20721F48091C2
:10117000ED018F7707C0C331D04531F48091ED0187
:101180008B7F877F8093ED018091ED010E949F1FEF
:101190009CC08D2F99278F70992781309105D9F4A4
:1011A0009E012370332702C0880F991F2A95E2F70A
:1011B0009C688E0144E0000F111F4A95E1F700275B
:1011C0001370802B912B53E0CC0FDD1F5A95E1F764
:1011D000C076DD272FC08230910531F4DC2FCC277B
:1011E0008E01016F106A71C08330910569F4CE01E0
:1011F0008370992701E010E002C0000F111F8A954B
:10120000E2F7C8019C680FC0049709F05EC0CE01E8
:101210008370992701E010E002C0000F111F8A952A
:10122000E2F7C8019A6823E0CC0FDD1F2A95E1F7A9
:10123000C07ED7708C010C2B1D2B47C0DF708E0138
:10124000106243C000E010E040C08E013EC001E8E3
:1012500010E43BC003E810E438C002EE14E435C0EB
:1012600009EE14E432C00AEE14E42FC005EB14E4D6
:101270002CC006EB14E429C007EB14E426C00CECE8
:1012800014E423C00DEC14E420C003E815E41DC0F1
:101290000AE815E41AC002E915E417C004E915E4E8
:1012A00014C001E216E411C003E216E40EC004E229
:1012B00016E40BC005E216E408C006E216E405C019
:1012C00007E216E402C00AE216E4C801DF91CF91FA
:1012D0001F910F91089596E0799FF001112494E5F4
:1012E000899FE00DF11D1124E60FF11DEE0FFF1F88
:1012F000EE50FF4F85919491803E9105E0F4803C43
:10130000910558F58133910509F46FC048F489328D
:10131000910509F463C08A32910509F46DC072C069
:1013200089339105E9F082389105D1F08533910533
:1013300009F44DC067C0833E910581F138F4803EC9
:101340009105B9F0823E9105D9F05CC0863E9105C9
:1013500061F1873E9105A1F155C00E943E070895B5
:101360002091ED0120FD02C021FF4CC080EE90E0F5
:1013700049C08091ED0180FFF9CF89E390E042C040
:101380008091ED0182FF0EC08091ED0184FF03C0CA
:1013900080E090E037C083EE90E034C08091ED01B2
:1013A00082FFF2CF82EE90E02DC08091ED0183FFAD
:1013B0000BC08091ED0184FDEBCF87EE90E022C061
:1013C0008091ED0183FFF5CF86EE90E01BC0809108
:1013D000ED0185FF07C089E290E014C08091ED0126
:1013E00085FFF9CF85E390E00DC08091ED0186FF88
:1013F00007C08AE290E006C08091ED0186FFF9CF38
:1014000081E390E00E944E07089508950C94050A28
:10141000809162010895CF93DF9300D01F92CDB7E2
:10142000DEB79C018091E401843019F593E0998343
:101430003B832A839093E9008FEF9091E8008150DD
:1014400095FD06C095ED9A95F1F700008111F5CF55
:101450008091E80085FF0DC040E050E063E070E05F
:10146000CE0101960E94750C8091E8008E778093E2
:10147000E8000F900F900F90DF91CF910895CF93D8
:10148000DF9300D01F92CDB7DEB72091E401243066
:1014900021F522E029839B838A8383E08093E900FE
:1014A0008FEF9091E800815095FD06C095ED9A95DB
:1014B000F1F700008111F5CF8091E80085FF0DC0A4
:1014C00040E050E063E070E0CE0101960E94750CB0
:1014D0008091E8008E778093E8000F900F900F9036
:1014E000DF91CF9108952091E4012430F1F422E0BE
:1014F0002093E9002FEF3091E800215035FD06C020
:1015000035ED3A95F1F700002111F5CF2091E80073
:1015100025FF0BC040E050E065E070E00E94750CD4
:101520008091E8008E778093E8000895CF93DF9351
:10153000EC019091E401943009F046C080910C01D7
:101540008823D9F080910D018823B9F09093E900A8
:101550008FEF9091E800815095FD06C095E19A9536
:10156000F1F700008111F5CF8091E80085FF2CC0D4
:1015700040E050E060E170E017C081E08093E90056
:101580008FEF9091E800815095FD06C095ED9A95FA
:10159000F1F700008111F5CF8091E80085FF14C0BC
:1015A00040E050E068E070E0CE010E94750C809150
:1015B000E8008E778093E80080E1FE01A2E5B1E0CB
:1015C00001900D928A95E1F7DF91CF910895809176
:1015D000E301811109C00E940A0E0E94670E8091EA
:1015E000E20084608093E20008951092E301089580
:1015F00008950C940E240E946B1D0E9414240E94D6
:101600000D110C94060A42E061EC81E00E94840D09
:1016100042E061EC82E00E94840D42E061EC83E0F4
:101620000E94840D42E161EC84E00C94840D809171
:10163000E601833009F455C030F4813071F0823016
:1016400009F48EC008958A3009F47AC08B3009F409
:1016500060C0893009F09CC020C08091E501813ACA
:1016600009F096C08091E800877F8093E800809120
:10167000E9019091EA01892B21F460E182E591E092
:1016800003C060E080E090E070E00E94C00C8091B8
:10169000E8008B778093E80008958091E50181321E
:1016A00009F076C08091E9019091EA01009719F064
:1016B000039709F06DC08091E800877F8093E80070
:1016C0008091E80082FD05C08091E4018111F8CF8E
:1016D0005FC08091F100809362018091E8008B7778
:1016E00053C08091E501813A09F052C08091E9012F
:1016F0009091EA01892B09F04BC08091E800877F27
:101700008093E8008091E80080FFFCCF80910C017D
:1017100036C08091E5018132D9F58091E90190913F
:10172000EA01892BA9F58091E800877F8093E80082
:101730000E94B90D8091E70180930C010C949D16D5
:101740008091E501813221F58091E800877F8093C7
:10175000E8000E94B90D8091E8018093630108952B
:101760008091E501813AA1F48091E800877F809320
:10177000E8008091E80080FFFCCF809163018093B6
:10178000F1008091E8008E778093E8000C94B90D09
:10179000089584B7877F84BF88E10FB6F89480935B
:1017A0006000109260000FBE90E080E80FB6F894E1
:1017B00080936100909361000FBE0E945C110E94B3
:1017C0000A0E0E94670E8091E20084608093E2001E
:1017D00078940E94ED100E945E1182E091E00E94D8
:1017E00008110E94FC238091E401853069F40E9475
:1017F0002C1D8091E2018823B1F30E94571D88239C
:1018000091F30E945F0CEFCF0E946411ECCF292F5F
:10181000332723303105C9F064F42130310581F0DC
:101820002230310509F043C08DE690E02EE037E02C
:1018300042C021323105F1F02232310541F137C089
:1018400082E190E02BE737E036C09927813091059F
:1018500041F08230910541F0892B49F5EAE0F7E04B
:1018600005C0E2EFF6E002C0EAEDF6E0849190E018
:101870009F0121C06430D8F4E62FF0E0EE0FFF1F87
:10188000EE5DFE4F2081318189E090E014C064302C
:1018900070F470E0FB01EE0FFF1FE65EFE4F20814B
:1018A0003181FB01EA5EFE4F808190E004C080E060
:1018B00090E020E030E0FA0131832083089580E158
:1018C00089BD82E189BD09B400FEFDCF8091D800B9
:1018D0008F7D8093D8008091E00082608093E0004B
:1018E0008091E00081FDFCCF0895CF92DF92EF92CE
:1018F000FF920F931F93CF93DF93EC018B016A014B
:101900000E94D80D811133C0C114D10439F0F60101
:1019100080819181081B190BC80FD91FE12CF12C74
:101920000115110519F18091E80085FD16C080911F
:10193000E8008E778093E800C114D10449F0F601E5
:1019400080819181E80EF91EF182E08285E00FC06E
:101950000E94D80D882321F30AC089918093F10059
:1019600001501109FFEFEF1AFF0ADACF80E0DF9193
:10197000CF911F910F91FF90EF90DF90CF9008953E
:101980002091EB013091EC012617370748F06115E3
:10199000710539F42091E8002E772093E80001C00A
:1019A000B90140E061157105A9F12091E4012223FC
:1019B00009F443C0253009F442C02091E80023FD1A
:1019C00040C02091E80022FD32C02091E80020FFB5
:1019D000E9CF4091F3002091F20030E0342BFC017C
:1019E000CF016115710559F02830310540F481911E
:1019F0008093F100615071092F5F3F4FF1CF41E0BB
:101A00002830310509F040E02091E8002E7720933E
:101A1000E800C8CF4111C9CF0AC08091E4018823F2
:101A200061F0853061F08091E80083FD0AC080910B
:101A3000E80082FFF2CF80E0089582E0089583E01D
:101A4000089581E008952091EB013091EC01261773
:101A5000370748F06115710539F42091E8002E77B9
:101A60002093E80001C0B901FC0120E06115710577
:101A700091F18091E401882309F440C0853009F494
:101A80003FC08091E80083FD3DC08091E80082FD69
:101A90002FC08091E80080FFE9CF2091F300809172
:101AA000F20090E0922B6115710559F08830910594
:101AB00040F424912093F100319661507109019610
:101AC000F2CF21E0089709F020E08091E8008E77BE
:101AD0008093E800CBCF2111CCCF0AC08091E401E4
:101AE000882361F0853061F08091E80083FD0AC0B1
:101AF0008091E80082FFF2CF80E0089582E00895AF
:101B000083E0089581E00895982F973058F59093D9
:101B1000E900981739F07091EC002091ED00509198
:101B2000F00003C0242F762F50E021FF19C0309120
:101B3000EB003E7F3093EB003091ED003D7F309322
:101B4000ED003091EB0031603093EB007093EC00CE
:101B50002093ED005093F0002091EE0027FF07C086
:101B60009F5FD3CF8F708093E90081E0089580E07C
:101B700008958091E50187FF11C08091E80082FD02
:101B800005C08091E4018111F8CF11C08091E80077
:101B90008B770BC08091E401882349F08091E800A5
:101BA00080FFF8CF8091E8008E778093E800089559
:101BB0002091E4003091E50095E64091EC00842FFF
:101BC000817040FF22C08091E80080FD1CC08091A0
:101BD000E401882391F0853091F08091EB0085FD40
:101BE00010C04091E4005091E5004217530729F3DB
:101BF0009A01915011F784E0089582E0089583E0FE
:101C0000089581E0089580E008954091E80042FF42
:101C1000DECF08950E94780E0E94800EE0EEF0E084
:101C2000808181608083E8EDF0E080818F77808320
:101C300019BCA7EDB0E08C918E7F8C9380818F7E54
:101C400080831092E30108950F931F93CF93DF9346
:101C50000E94780E0E94800EC8EDD0E088818F77B8
:101C6000888388818068888388818F7D888319BC78
:101C70001092E4011092E0011092E2011092E10151
:101C800000EE10E0F80180818B7F80838881816085
:101C9000888342E060E080E00E94840DE1EEF0E0A5
:101CA00080818E7F8083E2EEF0E08081816080839E
:101CB000808188608083F80180818E7F8083888125
:101CC00080618883DF91CF911F910F910895E8ED96
:101CD000F0E080818F7E8083E7EDF0E0808181609D
:101CE000808384E082BF81E08093E3010C94240E22
:101CF000E8EDF0E080818E7F80831092E20008950D
:101D00001092DA001092E10008951F920F920FB620
:101D10000F9211242F933F934F935F936F937F9371
:101D20008F939F93AF93BF93EF93FF938091E100C5
:101D300082FF0BC08091E20082FF07C08091E1002A
:101D40008B7F8093E1000E94EC108091DA0080FF8D
:101D50001FC08091D80080FF1BC08091DA008E7F69
:101D60008093DA008091D90080FF0DC080E189BDA9
:101D700082E189BD09B400FEFDCF81E08093E401DA
:101D80000E94E70A05C019BC1092E4010E94F50AFE
:101D90008091E10080FF19C08091E20080FF15C0B2
:101DA0008091E2008E7F8093E2008091E20080616A
:101DB0008093E2008091D80080628093D80019BCA3
:101DC00085E08093E4010E94F90A8091E10084FF9C
:101DD00030C08091E20084FF2CC080E189BD82E1A7
:101DE00089BD09B400FEFDCF8091D8008F7D80931E
:101DF000D8008091E1008F7E8093E1008091E20025
:101E00008F7E8093E2008091E20081608093E20007
:101E10008091E001882311F084E007C08091E30005
:101E200087FD02C081E001C083E08093E4010E944D
:101E3000FB0A8091E10083FF29C08091E20083FFCB
:101E400025C08091E100877F8093E10082E080934C
:101E5000E4011092E0018091E1008E7F8093E10027
:101E60008091E2008E7F8093E2008091E2008061A9
:101E70008093E20042E060E080E00E94840D809167
:101E8000F00088608093F0000E94F80AFF91EF91C3
:101E9000BF91AF919F918F917F916F915F914F9182
:101EA0003F912F910F900FBE0F901F9018951F928A
:101EB0000F920FB60F9211242F933F934F935F937E
:101EC0006F937F938F939F93AF93BF93CF93DF9342
:101ED000EF93FF93C091E900CF708091EC00D82F71
:101EE000D17080FDD0E81092E9008091F000877FEA
:101EF0008093F00078940E949B0F1092E9008091EB
:101F0000F00088608093F000CD2BCF70C093E90083
:101F1000FF91EF91DF91CF91BF91AF919F918F9101
:101F20007F916F915F914F913F912F910F900FBED5
:101F30000F901F9018951F93CF93DF93CDB7DEB707
:101F4000AA970FB6F894DEBF0FBECDBFE5EEF1E065
:101F500088E08E0F9091F10091938E13FBCF0E9439
:101F6000170B8091E80083FF1FC18091E5019091DC
:101F7000E601492F50E04A30510508F015C1FA0139
:101F8000E35AFF4F0C949625803881F0823809F08F
:101F90000BC18091E9018F708093E9008091EB0083
:101FA00085FB882780F91092E90006C08091E10145
:101FB0009091E201911182609091E800977F909357
:101FC000E8008093F1001092F100C8C0282F2D7F07
:101FD00009F0EAC0882319F0823061F0E5C08091F1
:101FE000E701813009F0E0C0933009F080E0809390
:101FF000E2012BC08091E701811127C08091E901A6
:102000008F7009F4D1C08093E9002091EB0020FF8C
:102010001CC0933021F48091EB00806214C0909139
:10202000EB0090619093EB0021E030E0A90102C049
:10203000440F551F8A95E2F74093EA001092EA0098
:102040008091EB0088608093EB001092E900809112
:10205000E800877F86C08111A7C01091E7011F7734
:102060008091E3008078812B8093E3008091E800E9
:10207000877F8093E8000E94B90D8091E80080FF7F
:10208000FCCF8091E30080688093E300111102C0CF
:1020900082E001C083E08093E40186C080588230F2
:1020A00008F082C08091E7019091E8018C3D53E0F7
:1020B000950779F583E08A838AE289834FB7F8949C
:1020C000DE01139620E03EE051E2E32FF0E0509372
:1020D0005700E49120FF03C0E295EF703F5FEF707F
:1020E0008E2F90E0EA3010F0C79601C0C0968D9315
:1020F0009D932F5F243149F74FBF8091E800877F80
:102100008093E8006AE270E0CE0101960E94C00C64
:1021100014C0AE014F5F5F4F6091E9010E94070C50
:10212000BC01892B09F440C09091E800977F9093FF
:10213000E80089819A810E94230D8091E8008B77C5
:102140008093E80031C0803879F58091E800877F7E
:102150008093E8008091E0018093F1008091E80095
:102160008E778093E8000E94B90D1EC081111CC0BB
:102170009091E7019230C0F48091E800877F8093CE
:10218000E8009093E0010E94B90D8091E001811177
:1021900006C08091E30087FD02C081E001C084E0B9
:1021A0008093E4010E94030B8091E80083FF0AC042
:1021B0008091E800877F8093E8008091EB00806247
:1021C0008093EB00AA960FB6F894DEBF0FBECDBF8A
:1021D000DF91CF911F9108950895CF938091E401ED
:1021E0008823A1F0C091E900CF709091EC00892F75
:1021F000817090FD80E8C82B1092E9008091E80082
:1022000083FD0E949B0FCF70C093E900CF9108958A
:1022100090936901809368010895E0916801F091BD
:102220006901309721F00190F081E02D099480E060
:102230000895E0916801F0916901309721F00280E2
:10224000F381E02D09940895E0916801F09169010E
:10225000309721F00480F581E02D099408952091B4
:102260006601309167018217930771F090936701BF
:1022700080936601E0916801F0916901309721F047
:102280000680F781E02D0994089520916401309132
:1022900065018217930771F0909365018093640143
:1022A000E0916801F0916901309721F00084F18597
:1022B000E02D0994089508950C945B110E94711DFE
:1022C0000E941E060C94371ECF92DF92EF92FF926F
:1022D0000F931F93CF93DF93CDB7DEB72B970FB636
:1022E000F894DEBF0FBECDBF0E9436068BE6C82E27
:1022F00081E0D82E00E010E0E02E802F0E9424071D
:10230000F60141916F01F42EF826B1F40F5F1F4FD3
:102310000E30110589F78FEF89838A831B820E9413
:102320007A1D8160782F9D838C8349815A816B81CE
:102330008D810E94071240C09091CD0191FF04C091
:102340008B870E942A078B8520E030E04F2D50E0DC
:10235000922FBA01022E02C0759567950A94E2F792
:1023600060FF24C02E83EF8221E030E0690102C0CB
:10237000CC0CDD1C9A95E2F790E08C219D21892BF5
:1023800009F420E028870E947A1D8160782F9A87BF
:1023900089874E815F8168858A850E940712F801CE
:1023A000E559FE4F8081C826C08206C02F5F3F4F8F
:1023B0002630310569F6AACF0E941E2110916A01CC
:1023C0000E940D111817A1F00E940D1180936A014F
:1023D0002B960FB6F894DEBF0FBECDBFDF91CF9125
:1023E0001F910F91FF90EF90DF90CF900C94060A11
:1023F0002B960FB6F894DEBF0FBECDBFDF91CF9105
:102400001F910F91FF90EF90DF90CF900895CF93A1
:10241000DF93CDB7DEB72B970FB6F894DEBF0FBEB4
:10242000CDBF4F83588769877A878B87DE011196E6
:1024300086E0FD0111928A95E9F785E0FE01379665
:1024400001900D928A95E1F749815A816B817C81D7
:102450008D819E810E9437192B960FB6F894DEBFAE
:102460000FBECDBFDF91CF9108950895CF938823FC
:1024700009F4C2C0C82F823859F40E940D1181FDA1
:10248000BBC089E30E94E01B0E94AD1C89E30CC025
:10249000833879F40E940D1180FDAEC083E50E945F
:1024A000E01B0E94AD1C83E50E94221CCF910C947E
:1024B000AD1C843859F40E940D1182FD9DC087E443
:1024C0000E94E01B0E94AD1C87E4EECF8CEF8C0FC6
:1024D000813A48F48C2F0E94612381118DC08C2F8A
:1024E0000E94E01BE3CF80E28C0F883048F4C77075
:1024F00081E001C0880FCA95EAF70E94661CD6CF1A
:102500008BE58C0F833078F4C53A29F0C63A31F068
:1025100083E890E005C081E890E002C082E890E0A6
:10252000CF910C942F1188E58C0F833108F064C093
:10253000C83A39F1C93A41F1CA3A49F1CB3A51F1B5
:10254000CC3A59F1CD3A61F1C03B69F1CE3A71F123
:10255000CF3A79F1C13B81F1C23B89F1C33B91F1A3
:10256000C43B99F1C53BA1F1C63BA9F1C73BB1F111
:10257000C83BB9F1C93BC1F1CA3BC9F180E090E069
:1025800038C082EE90E035C089EE90E032C08AEE2D
:1025900090E02FC085EB90E02CC086EB90E029C046
:1025A00087EB90E026C08CEC90E023C08DEC90E0AF
:1025B00020C083E891E01DC08AE891E01AC082E95A
:1025C00091E017C084E991E014C081E292E011C06B
:1025D00083E292E00EC084E292E00BC085E292E0DA
:1025E00008C086E292E005C087E292E002C08AE27B
:1025F00092E0CF910C944511CF910895882309F46E
:102600004BC0823859F40E940D1181FF45C089E307
:102610000E94E01B0E94AD1C89E30CC0833871F45A
:102620000E940D1180FF38C083E50E94E01B0E94CC
:10263000AD1C83E50E94221C0C94AD1C843859F417
:102640000E940D1182FF28C087E40E94E01B0E94B7
:10265000AD1C87E4EFCF9CEF980F913A58F390E2CE
:10266000980F983050F4877091E001C0990F8A95C7
:10267000EAF7892F0E946C1CDFCF9BE5980F9330FF
:1026800020F480E090E00C942F11885A833120F4DC
:1026900080E090E00C9445110895882321F00E9479
:1026A000661C0C94AD1C0895882321F00E946C1CBC
:1026B0000C94AD1C0895BF92CF92DF92EF92FF92DF
:1026C0000F931F93CF93DF9300D000D000D0CDB7EE
:1026D000DEB725E0FC01DE01119601900D922A95EE
:1026E000E1F7FC01D08011810281258122952F70B4
:1026F00043815481452B09F4FCC21F3F21F4FFEFB5
:10270000DF1609F4F6C27C012E830E943512D982AD
:102710001A8369817A81802F0E94DC1B182FB92EC1
:102720000E94911B0E94581A2E81002319F00E94CA
:10273000831C2E81EB2DE295EF70F0E0E959FF4FFD
:102740000C9496258B2D807F9B2D9F70F92E8823CE
:1027500019F0F29480EFF822002389F0FF2009F4A9
:1027600075C280E2810F883020F48F2D0E94661C94
:1027700003C08F2D0E94761C0E94AD1C67C2812F62
:102780000E94FE12FF2009F4B4C2105E8F2D183093
:1027900018F40E946C1C02C00E947C1C26960FB686
:1027A000F894DEBF0FBECDBFDF91CF911F910F9187
:1027B000FF90EF90DF90CF90BF900C94AD1C3B2D1D
:1027C000307F8B2D8F70303211F08295807F1123F6
:1027D00019F0113021F12CC00023B9F0222309F4A3
:1027E000A0C1213009F09DC126960FB6F894DEBF36
:1027F0000FBECDBFDF91CF911F910F91FF90EF9052
:10280000DF90CF90BF900C94961C222319F02130BA
:1028100009F46FC28E830E94991C8E8196C1002399
:1028200021F0223008F065C27CC1211162C28DC145
:10283000002321F0222309F474C108C2222309F4E1
:1028400084C119C22B2D26952695237030E02115C1
:10285000310521F021303105D1F04BC2002321F0A8
:10286000812F9B2D937002C080E090E026960FB6DA
:10287000F894DEBF0FBECDBFDF91CF911F910F91B6
:10288000FF90EF90DF90CF90BF900C942F1100231A
:1028900021F0812F9B2D937002C080E090E026965E
:1028A0000FB6F894DEBF0FBECDBFDF91CF911F9161
:1028B0000F91FF90EF90DF90CF90BF900C94451157
:1028C000812F002319F00E94262002C00E948E2032
:1028D00026960FB6F894DEBF0FBECDBFDF91CF9125
:1028E0001F910F91FF90EF90DF90CF90BF900C94CD
:1028F00013218B2D837009F07BC00111FAC1812F48
:10290000829586958770880F880F912F9F70C92EAA
:10291000D12CE12CF12C082E04C0CC0CDD1CEE1CBB
:10292000FF1C0A94D2F714FF12C04FE050E060E0A1
:1029300070E004C0440F551F661F771F8A95D2F7B9
:10294000CB01BA01609570958095909503C060E0C9
:1029500070E0CB012B2D269526952370422F50E059
:1029600042305105D9F04330510569F16C297D2978
:102970008E299F294130510551F126960FB6F894C2
:10298000DEBF0FBECDBFDF91CF911F910F91FF90A2
:10299000EF90DF90CF90BF900C947F1A6C297D2927
:1029A0008E299F2926960FB6F894DEBF0FBECDBFA5
:1029B000DF91CF911F910F91FF90EF90DF90CF901B
:1029C000BF900C949B1A0E947F1AC701B6012696ED
:1029D0000FB6F894DEBF0FBECDBFDF91CF911F9130
:1029E0000F91FF90EF90DF90CF90BF900C94631AFF
:1029F000002319F08B2D817001C08695882309F47E
:102A000078C1812F829586958770880F880F912FC6
:102A10009F70C92ED12CE12CF12C082E04C0CC0CB7
:102A2000DD1CEE1CFF1C0A94D2F714FF12C04FE00D
:102A300050E060E070E004C0440F551F661F771F30
:102A40008A95D2F7CB01BA016095709580959095E3
:102A500003C060E070E0CB012B2D269526952370F6
:102A6000422F50E042305105D9F04330510569F111
:102A70006C297D298E299F294130510551F12696D7
:102A80000FB6F894DEBF0FBECDBFDF91CF911F917F
:102A90000F91FF90EF90DF90CF90BF900C94591B57
:102AA0006C297D298E299F2926960FB6F894DEBFC2
:102AB0000FBECDBFDF91CF911F910F91FF90EF908F
:102AC000DF90CF90BF900C94751B0E94591BC701DB
:102AD000B60126960FB6F894DEBF0FBECDBFDF91CC
:102AE000CF911F910F91FF90EF90DF90CF90BF900B
:102AF0000C943D1B103FD1F118F4103E50F4A1C0CE
:102B0000123F09F463C008F44CC0133F09F473C0CA
:102B100098C01F708B2D8F710023A1F00E94D61AD0
:102B2000812F26960FB6F894DEBF0FBECDBFDF9182
:102B3000CF911F910F91FF90EF90DF90CF90BF90BA
:102B40000C944D130E94F71A812F26960FB6F89415
:102B5000DEBF0FBECDBFDF91CF911F910F91FF90D0
:102B6000EF90DF90CF90BF900C9454130023A9F006
:102B70002111BFC08B2D8F7126960FB6F894DEBF42
:102B80000FBECDBFDF91CF911F910F91FF90EF90BE
:102B9000DF90CF90BF900C941C1B223008F0A9C08E
:102BA000E9CF0023A9F08B2D8F7126960FB6F894EC
:102BB000DEBF0FBECDBFDF91CF911F910F91FF9070
:102BC000EF90DF90CF90BF900C94D61A002359F36A
:102BD0008B2D8F7126960FB6F894DEBF0FBECDBF3A
:102BE000DF91CF911F910F91FF90EF90DF90CF90E9
:102BF000BF900C94F71A002399F08B2D8F712696B5
:102C00000FB6F894DEBF0FBECDBFDF91CF911F91FD
:102C10000F91FF90EF90DF90CF90BF900C94C11A6E
:102C200026960FB6F894DEBF0FBECDBFDF91CF91D1
:102C30001F910F91FF90EF90DF90CF90BF900C9479
:102C4000B71A0023A9F0222309F4ADCF812F2696CD
:102C50000FB6F894DEBF0FBECDBFDF91CF911F91AD
:102C60000F91FF90EF90DF90CF90BF900C943612B1
:102C7000222309F4ADCF812F26960FB6F894DEBF3C
:102C80000FBECDBFDF91CF911F910F91FF90EF90BD
:102C9000DF90CF90BF900C94FE124B2D4F70612FA0
:102CA000C7010E94AA0426960FB6F894DEBF0FBE95
:102CB000CDBFDF91CF911F910F91FF90EF90DF90EB
:102CC000CF90BF900C94DB194B2D4F70612FC70133
:102CD00026960FB6F894DEBF0FBECDBFDF91CF9121
:102CE0001F910F91FF90EF90DF90CF90BF900C94C9
:102CF0002B0726960FB6F894DEBF0FBECDBFDF912F
:102D0000CF911F910F91FF90EF90DF90CF90BF90E8
:102D100008950E94831C0E94931C0E94581C0E94CC
:102D2000AD1C0E94C4210E94132180E090E00E940B
:102D30002F1180E090E00C9445110E94731C0C94BC
:102D400089160E94D11B292F22952F7030E02C303C
:102D500031054CF42A3031056CF42250310922300F
:102D6000310588F407C02C30310549F02F3031058A
:102D700031F009C0803E48F0803F29F406C093FB43
:102D8000882780F9089580E0089581E00895CF9321
:102D9000DF9300D000D01F92CDB7DEB70F900F9019
:102DA0000F900F900F90DF91CF910895CF93DF9305
:102DB00000D000D000D0CDB7DEB726960FB6F8947D
:102DC000DEBF0FBECDBFDF91CF9108951F93CF938C
:102DD000DF93C091790116E080917A01C81799F0CC
:102DE000D0E01C9FF0011D9FF00D1124E558FE4F0F
:102DF0004081518162817381848195810E94D616C0
:102E00002196C770E9CFDF91CF911F91089540912E
:102E1000AB015091AC016091AD017091AE01809118
:102E2000AF019091B0010C94D6168091B0018295BB
:102E30008F7009F054C08091AD01882309F44FC010
:102E400080917901A0917A016091AB017091AC0100
:102E50004091AE015091AF01B6E08A1709F43FC02E
:102E600090E041155105C1F17F3F11F46F3FA1F191
:102E7000B89FF001B99FF00D1124E558FE4F218154
:102E800072132AC02081621327C02281211124C01D
:102E9000238134812417350710F421503109241B74
:102EA000350B283C3105C0F42091B0012F70206112
:102EB0002093B00126E0289FF001299FF00D1124F6
:102EC000E058FE4F80818F70806180838BEA91E0B3
:102ED0000E945B130C94E61601968770BECF08958E
:102EE000CF92DF92EF92FF920F931F93CF93DF93D6
:102EF000CDB7DEB762970FB6F894DEBF0FBECDBF79
:102F00008C0185E0F801DE011D9601900D928A95F5
:102F1000E1F7D8014C9111965C91119712966C9142
:102F200012971396CD90DC9014973091AB0170916D
:102F3000AC018091AE019091AF01009709F46BC193
:102F40007F3F19F43F3F09F466C1E090AD01EE20E8
:102F500009F4C0C02091B001C816D90628F0F601C6
:102F6000E81BF90BCF0104C0809590958C0D9D1D39
:102F7000FF24F394883C910578F0F12C207F09F030
:102F8000C6C07C2DD98AC88A89890E94C7168BEA57
:102F900091E00E945B13B1C0822F807F09F046C090
:102FA000751314C0341312C0611110C02F7020614A
:102FB0002093B0010E9407178BEA91E00E945B13F7
:102FC0008091B001D80115968C932EC0CD2819F1AF
:102FD0005F3F11F44F3FF9F0F62E61111CC0809154
:102FE000790120917A0136E0821709F45AC090E005
:102FF000389FF001399FF00D1124E558FE4F718183
:10300000571306C07081471303C07281711103C04A
:1030100001968770E9CFF62E662309F418C18091D6
:10302000B00181608093B001F12C11C1751308C00B
:10303000341306C0611104C08091B001D801C3C02F
:103040004D875E878D859E856A8B0E94A1166A8951
:103050008823E1F16623D1F12091B001822F82957E
:103060008F7090E0029774F08091AB019091AC0169
:1030700098878F831986DB86CA862C87CE010796B0
:103080000E945B1386E0F801ABEAB1E001900D927B
:103090008A95E1F70E9415170E940717FF24F39401
:1030A000D6C04D875E878D859E850E94D11B292FB6
:1030B00022952F7030E0223031050CF0BCC09F709B
:1030C00009F0B6C0805E883008F4C1C0C8010E9413
:1030D0005B13E4CFC816D90608F453C0F601E81B09
:1030E000F90BCF01883C910508F450C0F12C7C2DE0
:1030F000D98AC88A89890E94C716EBEAF1E086E07E
:10310000DF011D928A95E9F70E940717A0C0751389
:1031100014C0341312C0611110C08091B001F801C5
:103120008583C8010E945B1386E0EBEAF1E0DF01D2
:103130001D928A95E9F7FE2C8AC04D875E878D85A2
:103140009E856A8B0E94A1166A89882309F4BECFE6
:10315000662309F4BBCF2091B001822F82958F7036
:1031600090E002970CF48ECF8091AB019091AC016E
:103170009A8389831B82DD82CC822E83CE010196C5
:103180007FCF809590958C0D9D1DACCFF62E66233C
:1031900009F49CCF75132EC034132CC02091B001BC
:1031A00020FD1FC0822F82958F70D9F0D80115960F
:1031B0002C9315978F3049F08F5F982F9295907FC1
:1031C000822F8F70892B15968C93C8010E945B13F8
:1031D00086E0F801ABEAB1E001900D928A95E1F743
:1031E00093CF86E0F801ABEAB1E001900D928A95A9
:1031F000E1F72DC04D875E878D859E850E94A116C3
:10320000811140CF8091B00181608093B001C801ED
:103210000E945B131CC0662309F458CF4D875E875C
:103220008D859E850E94A116882309F44FCF2ACF51
:10323000811148CF0CC0243031050CF047CF9F706E
:1032400009F440CFF8019581907F09F03BCF8F2D95
:1032500062960FB6F894DEBF0FBECDBFDF91CF915F
:103260001F910F91FF90EF90DF90CF9008951F93E3
:10327000CF93DF93CDB7DEB72C970FB6F894DEBFB0
:103280000FBECDBF4F83588769877A878B879C870E
:10329000CE0107960E947017882369F08F81988568
:1032A0002A853B85232BF1F19F3F09F063C08F3FB7
:1032B00009F060C037C086E0FE013796DE01119646
:1032C00001900D928A95E1F76F817885EA85FB85FB
:1032D000309741F17F3F11F46F3F21F120917A0146
:1032E00030E0C9010196877099274091790150E03B
:1032F0008417950709F447C069837A83FD83EC83BB
:1033000096E0929FD001939FB00D1124A558BE4F17
:10331000FE01319601900D929A95E1F780937A0122
:103320000E94E61616E08091790190917A01891742
:10333000C1F1189FC001112485589E4F0E9470173B
:10334000882379F1E09179011E9FF0011124E5585D
:10335000FE4F4081518162817381848195810E94F9
:10336000D6168091790190E0019687709927809315
:103370007901D9CF4F81588569857A858B859C8560
:103380000E94D616CFCF0E949D1610927A011092FD
:103390007901EBEAF1E086E0DF011D928A95E9F719
:1033A000C1CF2C960FB6F894DEBF0FBECDBFDF9114
:1033B000CF911F910895EF92FF920F931F93CF9398
:1033C000DF938C01892B09F46CC0F12CEE24E3947B
:1033D000E8012196F8018491843740F4843008F0A4
:1033E00051C0813081F0823019F15BC0853709F41A
:1033F00044C0A8F19CE7980F903708F052C08F772F
:103400000E94FE1241C00E5F1F4FFE01C49180E278
:103410008C0F883048F4C7708E2D01C0880FCA9574
:10342000EAF70E94861C14C08C2F0E9436122DC011
:103430000E5F1F4FFE01C49180E28C0F883058F45C
:10344000C7708E2D01C0880FCA95EAF70E948C1CA8
:103450000E94AD1C1AC08C2F0E94FE1216C00E5F77
:103460001F4FFE01C491CC2381F08FE99FE00197AB
:10347000F1F700C00000C150F6CF0E5F1F4FFE01F4
:10348000F49003C00E9436128E018F2D882309F418
:103490009FCFEFE9FFE03197F1F700C000008150C6
:1034A000F5CFDF91CF911F910F91FF90EF9008958D
:1034B00008956093B5017093B6018093B70190931E
:1034C000B8010C9489160F931F930091B5011091C8
:1034D000B6012091B7013091B801DC01CB01802BFE
:1034E000912BA22BB32B8093B5019093B601A0939F
:1034F000B701B093B8011F910F910C9489160F93E7
:103500001F930091B5011091B6012091B701309140
:10351000B801DC01CB0180239123A223B323809344
:10352000B5019093B601A093B701B093B8011F9174
:103530000F910C9489160F931F930091B501109170
:10354000B6012091B7013091B801DC01CB01802791
:103550009127A227B3278093B5019093B601A0933A
:10356000B701B093B8011F910F910C948916109276
:10357000B1011092B2011092B3011092B4010C94F7
:10358000891641E050E060E070E004C0440F551F30
:10359000661F771F8A95D2F74093B1015093B2010D
:1035A0006093B3017093B4010C94891641E050E02C
:1035B00060E070E004C0440F551F661F771F8A95B6
:1035C000D2F78091B1019091B201A091B301B09175
:1035D000B401482B592B6A2B7B2B4093B10150939C
:1035E000B2016093B3017093B4010C94891641E069
:1035F00050E060E070E004C0440F551F661F771F65
:103600008A95D2F740955095609570958091B1015B
:103610009091B201A091B301B091B4014823592314
:103620006A237B234093B1015093B2016093B301AD
:103630007093B4010C94891641E050E060E070E0B2
:1036400004C0440F551F661F771F8A95D2F78091DB
:10365000B1019091B201A091B301B091B40148279A
:1036600059276A277B274093B1015093B201609399
:10367000B3017093B4010C9489160F931F930091BA
:10368000B1011091B2012091B3013091B401DC017C
:10369000CB01802B912BA22BB32B8093B101909364
:1036A000B201A093B301B093B4011F910F910C9498
:1036B00089160F931F930091B1011091B2012091CF
:1036C000B3013091B401DC01CB0180239123A2230B
:1036D000B3238093B1019093B201A093B301B0934F
:1036E000B4011F910F910C9489160F931F930091B1
:1036F000B1011091B2012091B3013091B401DC010C
:10370000CB0180279127A227B3278093B101909303
:10371000B201A093B301B093B4011F910F910C9427
:1037200089160895CF92DF92EF92FF920F931F9325
:10373000CF93DF938C01C090B501D090B601E0909B
:10374000B701F090B8018091B1019091B201A091C0
:10375000B301B091B401C82AD92AEA2AFB2ACFE1E1
:10376000D0E0D701C6010C2E04C0B695A795979559
:1037700087950A94D2F780FF06C0B8018C2F0E946B
:103780006B09019721F4219760F780E001C08C2F2D
:10379000DF91CF911F910F91FF90EF90DF90CF902D
:1037A0000895CF93DF93EC010E94921BBE010E940B
:1037B0006B09DF91CF910895CB010E94D11B089531
:1037C00090910C01992321F090910D01911109C064
:1037D00020910E0130910F01F90132969FEF40E0E8
:1037E0001FC0982F9695969596959F3050F5E0912D
:1037F0000E01F0910F01E90FF11D877021E030E01B
:10380000A90102C0440F551F8A95E2F7CA019181B0
:10381000892B818308959F3F39F04F5F4E3041F0EF
:1038200051915813F8CF0DC05111F7CF942FF5CF08
:103830009F3F39F0F901E90FF11D97FDFA95828359
:103840000895089590910C01992321F090910D0114
:10385000911109C020910E0130910F01F9013296AA
:10386000205F3F4F1FC0982F9695969596959F3055
:10387000F0F4E0910E01F0910F01E90FF11D877056
:1038800021E030E0A90102C0440F551F8A95E2F7FC
:10389000CA01809591818923818308953196E21729
:1038A000F30729F090819813F9CF1082F7CF08958C
:1038B00081E090E0E0910E01F0910F01E80FF91F17
:1038C0001082019680319105A9F708959091CC015D
:1038D000892B8093CC01089580959091CC01892308
:1038E0008093CC0108951092CC0108959091CB0162
:1038F000892B8093CB01089580959091CB018923EA
:103900008093CB0108951092CB0108959091CA0144
:10391000892B8093CA01089580959091CA018923CB
:103920008093CA0108951092CA0108958093B90145
:1039300008951092B901089580910E0190910F01A0
:10394000FC0131969C01205F3F4F80E091919111E5
:103950008F5FE217F307D1F70895E0910E01F09120
:103960000F018091CC018083E0910E01F0910F0155
:1039700090818091CB01892B8083E0910E01F091A1
:103980000F0190818091CA01892B80838091B901B8
:10399000882361F0E0910E01F0910F019081892B55
:1039A00080830E949C1C81111092B90180910E01AC
:1039B00090910F010C941911CF92DF92EF92FF9228
:1039C0006C01EE24FF24C114D104E104F10421F0C0
:1039D000C701B60120E101C020E0C72ED82EE92E94
:1039E000FF24C114D104E104F10419F0285FC701D8
:1039F000B6016B017C0154E0F694E794D794C79428
:103A00005A95D1F7C114D104E104F10419F02C5FE7
:103A1000C701B6016B017C0142E0F694E794D794AC
:103A2000C7944A95D1F7C114D104E104F10419F007
:103A30002E5FC701B601DC01CB01B695A79597951E
:103A40008795892B8A2B8B2B09F02F5F822FFF9074
:103A5000EF90DF90CF9008958091E401843021F1C0
:103A60001092CE0120E488E190E00FB6F894A8957A
:103A7000809360000FBE2093600080E00E94060AE1
:103A800083B7817F846083BF83B7816083BF78946D
:103A9000889583B78E7F83BF88E10FB6F8948093B3
:103AA0006000109260000FBE089508950895CF93AE
:103AB0000E94551D0E9436060E94561DC0E08C2FA4
:103AC0000E942407811104C0CF5FCE30C1F701C02E
:103AD00081E0CF9108950E949D160E940D110C94D3
:103AE000060A82E084BD93E095BD9AEF97BD80936E
:103AF0006E0008952FB7F8948091CF019091D00176
:103B0000A091D101B091D2012FBF0895CF92DF9241
:103B1000EF92FF920F931F932FB7F8944091CF012C
:103B20005091D0016091D1017091D2012FBF6A01F3
:103B30007B01EE24FF248C0120E030E0C016D1068A
:103B4000E206F30610F4415051099A01281B390B83
:103B5000C9011F910F91FF90EF90DF90CF900895D2
:103B60001F920F920FB60F9211248F939F93AF93D2
:103B7000BF938091CF019091D001A091D101B091DC
:103B8000D2010196A11DB11D8093CF019093D00168
:103B9000A093D101B093D201BF91AF919F918F912A
:103BA0000F900FBE0F901F9018950E940A0EF89468
:103BB0002FEF87EA91E6215080409040E1F700C066
:103BC000000087E090EBDC018093EE019093EF0121
:103BD000A093F001B093F1019CE088E10FB6F89456
:103BE000A895809360000FBE90936000FFCFEF9286
:103BF000FF920F931F93CF93DF93D82FC0E08C2FAA
:103C00000E94240700E010E0E82EF12CC701002EEE
:103C100002C0959587950A94E2F780FD06C00F5F74
:103C20001F4F0630110591F709C0602F7C2F80E0EF
:103C30000E942C07D813F3CF81E004C0CF5FCE30B1
:103C4000F1F680E0DF91CF911F910F91FF90EF90FF
:103C50000895CF93C82F8CE20E94F71D882321F08E
:103C60008C2FCF910C94F71D80E0CF910895CF93C6
:103C70000E947E1F811102C00E94641FC5E6C150D0
:103C800049F00E9436068FE39CE90197F1F700C0E6
:103C90000000F5CF89E20E94291E811113C18AE23A
:103CA0000E94291E81110E94641F85E00E94291E26
:103CB00081110E94D51D0E94891F8093CD0187E04C
:103CC0000E94291E8823A9F18BE10E94291E8823C6
:103CD00051F08091CD0181FB222720F991E09227BC
:103CE00090FB81F90EC08EE00E94291E882361F0AE
:103CF0008091CD0182FB222720F991E0922790FB51
:103D000082F98093CD0115C080E10E94291E909117
:103D1000CD01882341F093FB222720F981E08227FF
:103D200080FB93F904C0892F809580FB90F99093D4
:103D3000CD018091CD010E948D1F0E949B1F809319
:103D4000ED0180EE0E94291E882341F08091ED0153
:103D5000982F909590FB80F98093ED0189E30E9464
:103D6000291E882359F08091ED0181FB222720F93B
:103D700091E0922790FB81F98093ED0182EE0E9401
:103D8000291E882359F08091ED0182FB222720F91A
:103D900091E0922790FB82F98093ED0186EE0E94DC
:103DA000291E882359F08091ED0183FB222720F9F9
:103DB00091E0922790FB83F98093ED0183EE0E94BE
:103DC000291E882359F08091ED0184FB222720F9D8
:103DD00091E0922790FB84F98093ED0185E30E94A6
:103DE000291E882359F08091ED0185FB222720F9B7
:103DF00091E0922790FB85F98093ED0181E30E9489
:103E0000291E882359F08091ED0186FB222720F995
:103E100091E0922790FB86F98093ED0181E10E9469
:103E2000291E882359F08091ED0187FB222720F974
:103E300091E0922790FB87F98093ED018091ED014D
:103E40000E949F1F8091ED0187FB882780F9809356
:103E50000D0187E20E94291EC82F8EE10E94291EB3
:103E60008111C2608FE10E94291E8111C46080E22D
:103E70000E94291E8111C86081E20E94291E8111C1
:103E8000C06182E20E94291E8111C06283E20E9409
:103E9000291E8111C06484E20E94291E882311F02A
:103EA000C06802C0CC2329F08C2F0E94961F6C2F73
:103EB00003C00E94921F682F70E080E090E0CF91D5
:103EC0000C94591ACF9108956DEE7EEF80E090E04A
:103ED0000E94CC2560E082E090E00E94BE2560E078
:103EE00083E090E00E94BE2560E084E090E00E94C4
:103EF000BE2560E085E090E00C94BE2580E090E077
:103F00000E94B82521E08D3E9E4F09F020E0822FCF
:103F1000089582E090E00C94B025682F82E090E054
:103F20000C94BE2583E090E00C94B025682F83E0CC
:103F300090E00C94BE2584E090E00C94B025682FAE
:103F400084E090E00C94BE258091D50180FF0BC0E9
:103F50006091130185E0689FB00111247595679504
:103F6000759567952BC081FF09C06091130185E0AD
:103F7000689FB00111247595679520C082FF07C026
:103F80006091130185E0689FB001112417C09091E2
:103F9000D6019923D1F060911201961788F72091EC
:103FA000130185E0289F90011124929FA001939F07
:103FB000500D112470E0CA010E94822560387105FD
:103FC00040F46115710539F002C065E070E0862F9C
:103FD00008958FE7089581E008958091D50180FFCD
:103FE00008C06091110170E07595679575956795AA
:103FF00021C081FF06C06091110170E07595679541
:1040000019C082FF04C06091110170E010C090914E
:10401000D6019923C1F0609110019617A0F7809105
:104020001101899FC001112470E00E94822560382F
:10403000710528F46115710521F0862F08958FE729
:10404000089581E0089561E070E0F4CF803F21F4AD
:104050000E94A41F819504C0813F29F40E94A41FDF
:104060008093D9010895823F21F40E94A41F819575
:1040700004C0833F29F40E94A41F8093D8010895AF
:10408000893F19F40E94ED1F05C08A3F31F40E9458
:10409000ED1F81958093DA0108958B3F21F40E94F2
:1040A000ED1F819504C08C3F29F40E94ED1F809381
:1040B000DB010895843F21F48091D701816017C00E
:1040C000853F21F48091D701826011C0863F21F4A1
:1040D0008091D70184600BC0873F21F48091D70184
:1040E000886005C0883F31F48091D701806180935A
:1040F000D70108958D3F21F48091D50181600BC0D7
:104100008E3F21F48091D501826005C08F3F29F454
:104110008091D50184608093D5010895803F39F462
:104120008091D90187FF6CC01092D90169C0813F8D
:1041300029F48091D9011816BCF362C09091D8017E
:10414000823F29F497FF5CC01092D80159C0833F89
:1041500019F41916CCF354C0893F41F48091DA0167
:1041600018160CF04DC01092DA014AC08A3F29F4AB
:104170008091DA0187FF44C0F6CF8B3F39F48091FC
:10418000DB0187FF3DC01092DB013AC08C3F29F470
:104190008091DB011816BCF333C0843F21F4809179
:1041A000D7018E7F17C0853F21F48091D7018D7F85
:1041B00011C0863F21F48091D7018B7F0BC0873FD0
:1041C00021F48091D701877F05C0883F31F4809129
:1041D000D7018F7E8093D70113C08D3F21F480914A
:1041E000D5018E7F0BC08E3F21F48091D5018D7F4C
:1041F00005C08F3F29F48091D5018B7F8093D50135
:104200008091D80181110EC08091D90181110AC01D
:104210008091DA01811106C08091DB01811102C019
:104220001092D601089587ED91E00E9424110E941A
:104230007A1D9093D4018093D30108951F93CF9357
:10424000DF938091D3019091D4010E94861DAC012F
:104250009091D601992321F02091140130E006C0FD
:10426000209115018AE0289F9001112442175307DD
:1042700008F486C08091D801C091D901D091DA01AB
:104280001091DB01811107C0C11176C0D11174C03A
:10429000111172C075C09F3F19F09F5F9093D601B6
:1042A000181624F40E94A41F8093D8018091D8018D
:1042B00087FF05C00E94A41F81958093D8011C161A
:1042C00024F40E94A41F8093D9018091D90187FF13
:1042D00005C00E94A41F81958093D9016091D801E7
:1042E000662339F1C091D901CC2319F1772767FDF5
:1042F0007095872F972F0E94932423E333E343E3A2
:104300005FE30E94F7240E9460246093D8016C2F21
:10431000772767FD7095872F972F0E94932423E3BB
:1043200033E343E35FE30E94F7240E946024609339
:10433000D9011D1624F40E94ED1F8093DA018091AB
:10434000DA0187FF05C00E94ED1F81958093DA0195
:10435000111624F40E94ED1F8093DB018091DB0194
:1043600087FF05C00E94ED1F81958093DB01DF91DF
:10437000CF911F910C9413219F3F09F08ECF96CFC0
:10438000DF91CF911F910895E7EDF1E085E0DF0126
:104390001D928A95E9F71092D6011092D5010895E1
:1043A000833081F128F4813059F08230D1F00895C2
:1043B000853009F449C0B8F1863009F456C0089533
:1043C00080911501262F30E0280F311D2F3F310538
:1043D00024F4680F6093150108958FEF8093150101
:1043E000089580911401262F30E0280F311D2F3FB2
:1043F000310524F4680F6093140108958FEF8093C2
:104400001401089580911301262F30E0280F311DEB
:104410002F3F310524F4680F6093130108958FEF47
:1044200080931301089580911201262F30E0280F08
:10443000311D2F3F310524F4680F60931201089558
:104440008FEF80931201089580911101262F30E0A3
:10445000280F311D2F3F310524F4680F609311019F
:1044600008958FEF80931101089580911001262FF8
:1044700030E0280F311D2F3F310524F4680F609381
:10448000100108958FEF809310010895833011F18A
:1044900028F4813049F0823091F00895853081F11F
:1044A00020F18630C1F1089580911501681720F43C
:1044B000861B80931501089510921501089580912F
:1044C0001401681720F4861B80931401089510923C
:1044D0001401089580911301681720F4861B8093BE
:1044E0001301089510921301089580911201681725
:1044F00020F4861B809312010895109212010895F2
:1045000080911101681720F4861B80931101089592
:1045100010921101089580911001681720F4861BF4
:104520008093100108951092100108950F931F9326
:104530008D3109F46BC008F03FC08E3009F47FC0A4
:10454000C0F4873009F469C068F4863009F0B1C05E
:104550008091CD01817F8E7F8093CD0181E080931A
:10456000DD01A8C0883009F4A2C08B3009F49FC0D7
:10457000A0C0863109F49BC078F4803109F472C080
:10458000813109F096C00E949D1690910D0181E045
:10459000892780930D018BC0893109F488C08B3144
:1045A00009F087C08091CD0181FB222720F991E09D
:1045B000922790FB81F94CC0853309F470C048F410
:1045C000873209F46CC008F459C0893209F467C015
:1045D00070C0833438F48A3308F04EC0883309F44D
:1045E00066C067C0833409F45AC0883409F061C0DA
:1045F0000E949D160FEF13ED20E301501040204064
:10460000E1F700C000000E94D51D51C00E941A248D
:104610000E940D110E94060A4AC09091CD01892F77
:104620008095817080FB90F929F096609860909356
:10463000CD0140C0997F977F9093CD0138C0809184
:10464000CD0182FB222720F991E0922790FB82F98D
:104650008093CD01992359F18091CD0181608093A0
:10466000CD0125C08091CD0183FB222720F991E067
:10467000922790FB83F9ECCF895301C08D5141E023
:1046800050E060E070E08A019B0104C0000F111F40
:10469000221F331F8A95D2F7C901B80104C061E017
:1046A00070E080E090E00E94591A0E949D1681E01F
:1046B00001C080E01F910F91089580E0089580E08F
:1046C0000895CF93C82F8091DD01813079F018F0E3
:1046D0008230E9F187C0E0910E01F0910F018081F5
:1046E000813169F0823209F07FC009C0E0910E018A
:1046F000F0910F018081813111F0823261F48C2FB1
:104700000E945D23811104C08C2F0E9496221DC03F
:1047100081E090E01AC08C2F0E945F23811114C0A9
:10472000C43179F048F4CB3079F0C03109F060C081
:1047300082E08093DD0108C0C93219F0C83321F04E
:1047400057C01092DD0154C081E0817053C0C9325E
:1047500089F118F5C43171F1A8F4C73009F046C0E9
:104760008AE08093150194E19093140193E0909373
:1047700013018093120188E08093110188E28093F5
:10478000100134C0CE51C63088F5EC2FF0E0E65D64
:10479000FE4F80818093DC0129C0CE34E9F020F403
:1047A000CB3421F56AE013C0C13579F0C235F1F49C
:1047B00061E00DC08091DC01882319F01092DC01CA
:1047C00015C081E08093DD0115C061E006C08091D5
:1047D000DC010E94D0210AC06AE08091DC010E94C5
:1047E000462204C01092DD0180E004C081E002C0D6
:1047F00080E0ABCFCF910895E1E8F0E08081886060
:1048000080838081816080838FB7F89493E0909358
:10481000890090ED909388008FBF0895EFE6F0E057
:104820008081826080830895EFE6F0E080818D7F53
:1048300080830895EFE6F0E0908182E0892780830D
:1048400008951F920F920FB60F9211242F933F934A
:104850004F935F936F937F938F939F93AF93BF9388
:10486000EF93FF938091DE019091DF010196909389
:10487000DF018093DE01811103C082E00E94060AFD
:10488000E091DF01E695E695F0E0E857F74FE49117
:104890008091DE018E1303C080E00E94060AFF9122
:1048A000EF91BF91AF919F918F917F916F915F91A8
:1048B0004F913F912F910F900FBE0F901F90189521
:1048C00004D06894B1118DC0089570D088F09F57BE
:1048D00090F0B92F9927B751A0F0D1F0660F771F4C
:1048E000881F991F1AF0BA95C9F712C0B13081F02C
:1048F00077D0B1E0089574C0672F782F8827B85F0C
:1049000039F0B93FCCF3869577956795B395D9F78C
:104910003EF490958095709561957F4F8F4F9F4F96
:104920000895E89409C097FB3EF4909580957095A2
:1049300061957F4F8F4F9F4F9923A9F0F92F96E9EB
:10494000BB279395F695879577956795B795F11160
:10495000F8CFFAF4BB0F11F460FF1BC06F5F7F4FFD
:104960008F4F9F4F16C0882311F096E911C077230F
:1049700021F09EE8872F762F05C0662371F096E818
:10498000862F70E060E02AF09A95660F771F881FE7
:10499000DAF7880F9695879597F9089557FD9058FF
:1049A000440F551F59F05F3F71F04795880F97FBF3
:1049B000991F61F09F3F79F08795089512161306AD
:1049C0001406551FF2CF4695F1DF08C016161706DC
:1049D0001806991FF1CF8695710561050894089511
:1049E000E894BB2766277727CB0197F908950BD06A
:1049F00078C069D028F06ED018F0952309F05AC01D
:104A00005FC01124EECFCADFA0F3959FD1F3950FBD
:104A100050E0551F629FF001729FBB27F00DB11D42
:104A2000639FAA27F00DB11DAA1F649F6627B00DD2
:104A3000A11D661F829F2227B00DA11D621F739FBB
:104A4000B00DA11D621F839FA00D611D221F749FC9
:104A50003327A00D611D231F849F600D211D822F10
:104A6000762F6A2F11249F5750408AF0E1F0882357
:104A70004AF0EE0FFF1FBB1F661F771F881F915064
:104A80005040A9F79E3F510570F014C0AACF5F3F78
:104A9000ECF3983EDCF3869577956795B795F79597
:104AA000E7959F5FC1F7FE2B880F911D969587951F
:104AB00097F9089597F99F6780E870E060E008959E
:104AC0009FEF80EC089500240A9416161706180626
:104AD0000906089500240A94121613061406050602
:104AE0000895092E0394000C11F4882352F0BB0F93
:104AF00040F4BF2B11F460FF04C06F5F7F4F8F4FF6
:104B00009F4F089597FB072E16F4009407D077FD6A
:104B100009D00E949C2507FC05D03EF49095819514
:104B20009F4F0895709561957F4F0895EE0FFF1F79
:104B30000590F491E02D0994AA1BBB1B51E107C01D
:104B4000AA1FBB1FA617B70710F0A61BB70B881F1D
:104B5000991F5A95A9F780959095BC01CD010895AC
:104B6000F999FECF92BD81BDF89A992780B5089535
:104B7000A8E1B0E042E050E00C94D325262FF9994B
:104B8000FECF1FBA92BD81BD20BD0FB6F894FA9A30
:104B9000F99A0FBE019608950E94BE25272F0C9406
:104BA000BF25DC01CB01FC01F999FECF06C0F2BDA7
:104BB000E1BDF89A319600B40D9241505040B8F7DB
:064BC0000895F894FFCFF8
:104BC6002002080A960A730A3F0A0B0A0101BA0173
:104BD60028080A03140A3F4D36394908FC07C60758
:104BE6008D072007390752076B07010203040506E4
:044BF60007080900A3
:00000001FF
